:100000000C9434000C9451000C9451000C94510049
:100010000C9451000C9451000C9451000C9451001C
:100020000C9451000C9451000C9451000C9451000C
:100030000C9451000C9451000C9451000C945100FC
:100040000C9451000C9451000C9451000C945100EC
:100050000C9451000C9451000C9451000C945100DC
:100060000C9451000C94510011241FBECFEFD8E026
:10007000DEBFCDBF11E0A0E0B1E0E0EAF3E002C0F6
:1000800005900D92A430B107D9F721E0A4E0B1E0CA
:1000900001C01D92A830B207E1F70E94EE000C9457
:1000A000CE010C9400008EBD0DB407FEFDCF8EB5C1
:1000B00090E00895E1ECF0E0808188618083E2ECDB
:1000C000F0E08081866080831092C5008CE0809390
:1000D000C4000895E0ECF0E080818823ECF7809183
:1000E000C6000895E0ECF0E0908195FFFDCF80938D
:1000F000C6000895CF93DF93EC018881882331F007
:1001000021960E94720089918111FBCFDF91CF91DE
:1001100008950F931F93CF93DF93EC018C010B5F36
:100120001F4F0E946A008993C017D107D1F7DF9152
:10013000CF911F910F9108950F931F93CF93DF934A
:10014000CDB7DEB72A970FB6F894DEBF0FBECDBF8E
:100150008C0180E3898380E090E00E94FC00CB0169
:100160000E9460010E945B01092E000CAA0BBB0BD0
:10017000BD83AC839B838A830E946A0082E60E94CF
:100180007200CE0101960E947A00CE0106960E946E
:1001900089009F818A819813F8CF98858B81981365
:1001A000F4CF99858C819813F0CF9A858D8198131F
:1001B000ECCF8E81F8018083CE0106960E947A00F2
:1001C000C8010E947A002A960FB6F894DEBF0FBECF
:1001D000CDBFDF91CF911F910F910895CF93DF9302
:1001E00000D000D000D0CDB7DEB70E945A00CE01BB
:1001F00001960E949C00FFCFFC010FB6F89460911D
:1002000004017091050180910601909107010FBED4
:10021000309721F0608371838283938308958F9256
:100220009F92AF92BF92CF92DF92EF92FF92CF93C5
:10023000DF93EC01688179818A819B816115710569
:100240008105910521F464E279ED8BE597E02DE1DC
:1002500033EF41E050E00E946B0149015A019B01DC
:10026000AC01A7EAB1E40E948A016B017C01ACEE0B
:10027000B4EFA50194010E949801DC01CB018C0D23
:100280009D1DAE1DBF1DB7FF03C00197A109B0485A
:1002900088839983AA83BB839F77DF91CF91FF9057
:1002A000EF90DF90CF90BF90AF909F908F90089588
:1002B0000E940F01089580E091E00E940F010895CF
:1002C000A0E0B0E08093000190930101A0930201AF
:1002D000B09303010895052E97FB1EF400940E942D
:1002E000820157FD07D00E949D0107FC03D04EF408
:1002F0000C94820150954095309521953F4F4F4F7A
:100300005F4F089590958095709561957F4F8F4FC1
:100310009F4F08950E94BF01A59F900DB49F900D1F
:10032000A49F800D911D11240895B7FF0C948A019C
:100330000E948A01821B930B0895A1E21A2EAA1B28
:10034000BB1BFD010DC0AA1FBB1FEE1FFF1FA21785
:10035000B307E407F50720F0A21BB30BE40BF50B82
:10036000661F771F881F991F1A9469F7609570950B
:10037000809590959B01AC01BD01CF010895A29F8E
:10038000B001B39FC001A39F700D811D1124911D69
:10039000B29F700D811D1124911D0895F894FFCF17
:0403A0000100000058
:00000001FF
