:100000000C9434000C943E000C943E000C943E0082
:100010000C943E000C943E000C943E000C943E0068
:100020000C943E000C943E000C943E000C943E0058
:100030000C943E000C943E000C943E000C943E0048
:100040000C943E000C943E000C943E000C943E0038
:100050000C943E000C943E000C943E000C943E0028
:100060000C943E000C943E0011241FBECFEFD8E04C
:10007000DEBFCDBF0E94CF000C94DD000C940000C9
:100080008EBD0DB407FEFDCF8EB590E00895E1EC76
:10009000F0E0808188618083E2ECF0E0808186601E
:1000A00080831092C5008CE08093C4000895E0EC3A
:1000B000F0E080818823ECF78091C6000895E0ECA1
:1000C000F0E0908195FFFDCF8093C6000895CF9317
:1000D000DF93EC018881882331F021960E945F0034
:1000E00089918111FBCFDF91CF9108950F931F93D9
:1000F000CF93DF93EC018C010B5F1F4F0E945700E1
:100100008993C017D107D1F7DF91CF911F910F913C
:1001100008950F931F93CF93DF93CDB7DEB72A9740
:100120000FB6F894DEBF0FBECDBF8C0180E389838C
:1001300081E68A8382E68B8383E68C8384E68D83E3
:100140000E945700CE0101960E946700CE010696DC
:100150000E9476009F818A819813F8CF98858B81C1
:100160009813F4CF99858C819813F0CF9A858D815F
:100170009813ECCF8E81F8018083CE0106960E9401
:100180006700C8010E9467002A960FB6F894DEBF88
:100190000FBECDBFDF91CF911F910F910895CF93E7
:1001A000DF9300D000D000D0CDB7DEB70E9447006B
:0E01B000CE0101960E948900FFCFF894FFCF88
:00000001FF
