:100000000C9434000C9451000C9451000C94510049
:100010000C9451000C9451000C9451000C9451001C
:100020000C9451000C9451000C9451000C942B0131
:100030000C9451000C9451000C9451000C945100FC
:100040000C9451000C9451000C9451000C945100EC
:100050000C9451000C9451000C9451000C945100DC
:100060000C9451000C94510011241FBECFEFD8E026
:10007000DEBFCDBF21E0A4E0B1E001C01D92AE30F3
:10008000B207E1F711E0A0E0B1E0ECECF4E002C06F
:1000900005900D92A430B107D9F70E94B0000C94DE
:1000A00064020C9400008EBD0DB407FEFDCF8EB52A
:1000B00090E00895E1ECF0E0808188618083E2ECDB
:1000C000F0E08081866080831092C5008CE0809390
:1000D000C4000895E0ECF0E080818823ECF7809183
:1000E000C6000895E0ECF0E0908195FFFDCF80938D
:1000F000C6000895CF93DF93EC018881882331F007
:1001000021960E94720089918111FBCFDF91CF91DE
:1001100008950F931F93CF93DF93EC018C010A5F37
:100120001F4F0E946A008993C017D107D1F7DF9152
:10013000CF911F910F91089580ED93E090938900E6
:1001400080938800E1E8F0E080818860808380818E
:1001500085608083EFE6F0E080818260808308958F
:10016000E4E0F1E080E3808381838283838384837E
:1001700085830E945A000E949C00569A2298789487
:10018000FFCF0F931F93CF93DF93CDB7DEB72C979D
:100190000FB6F894DEBF0FBECDBF8C0180E389831C
:1001A0008A8380E090E00E949201CB010E94F601D8
:1001B0000E94F101092E000CAA0BBB0BBE83AD837C
:1001C0009C838B830E946A00CE0101960E947A0074
:1001D000CE0107960E94890099858B819813F8CFEC
:1001E0009A858C819813F4CF9B858D819813F0CFDD
:1001F0009C858E819813ECCF8F81F80180832C969B
:100200000FB6F894DEBF0FBECDBFDF91CF911F9127
:100210000F910895ECE7F0E0808380818064808313
:1002200080818F7D8083EAE7F0E080818760808332
:10023000808180688083808180648083808186FD66
:10024000FDCF209178008091790090E0982F882749
:10025000820F911D08951F920F920FB60F921124D5
:10026000CF92DF92EF92FF922F933F934F935F9342
:100270006F937F938F939F93AF93BF93EF93FF936E
:100280008BB190E489278BB981E00E940A016C014F
:10029000990FEE08FF0882E00E940A01C114D10400
:1002A000E104F10489F4092E000CAA0BBB0B0097A2
:1002B000A105B10551F584E3809305011A992EC07B
:1002C00080E38093060108C0E4E0F1E081E38183EC
:1002D000F582E482D382C28284E091E00E947A00B7
:1002E000FF91EF91BF91AF919F918F917F916F910E
:1002F0005F914F913F912F91FF90EF90DF90CF90C2
:100300000F900FBE0F901F901895E4E0F1E022E3EC
:100310002183B583A48393838283DECF81E380939B
:100320000601DACFFC010FB6F89460910A017091D2
:100330000B0180910C0190910D010FBE309721F0BF
:10034000608371838283938308958F929F92AF928B
:10035000BF92CF92DF92EF92FF92CF93DF93EC01A7
:10036000688179818A819B8161157105810591057B
:1003700021F464E279ED8BE597E02DE133EF41E084
:1003800050E00E94010249015A019B01AC01A7EA19
:10039000B1E40E9420026B017C01ACEEB4EFA50138
:1003A00094010E942E02DC01CB018C0D9D1DAE1D1F
:1003B000BF1DB7FF03C00197A109B0488883998387
:1003C000AA83BB839F77DF91CF91FF90EF90DF905F
:1003D000CF90BF90AF909F908F9008950E94A501FD
:1003E000089580E091E00E94A5010895A0E0B0E0AA
:1003F0008093000190930101A0930201B093030147
:100400000895052E97FB1EF400940E94180257FDD4
:1004100007D00E94330207FC03D04EF40C9418025C
:1004200050954095309521953F4F4F4F5F4F089520
:1004300090958095709561957F4F8F4F9F4F089550
:100440000E945502A59F900DB49F900DA49F800D12
:10045000911D11240895B7FF0C9420020E942002E0
:10046000821B930B0895A1E21A2EAA1BBB1BFD0150
:100470000DC0AA1FBB1FEE1FFF1FA217B307E40783
:10048000F50720F0A21BB30BE40BF50B661F771FDB
:10049000881F991F1A9469F76095709580959095BB
:1004A0009B01AC01BD01CF010895A29FB001B39F94
:1004B000C001A39F700D811D1124911DB29F700D6D
:0C04C000811D1124911D0895F894FFCFB8
:0404CC00010000002B
:00000001FF
