:100000000C9434000C9451000C9451000C94510049
:100010000C9451000C9451000C9451000C9451001C
:100020000C9451000C9451000C9451000C941D013F
:100030000C9451000C9451000C9451000C945100FC
:100040000C9451000C9451000C9451000C945100EC
:100050000C9451000C9451000C9451000C945100DC
:100060000C9451000C94510011241FBECFEFD8E026
:10007000DEBFCDBF11E0A0E0B1E0EEEDF4E002C0E4
:1000800005900D92AA30B107D9F721E0AAE0B1E0BE
:1000900001C01D92A431B207E1F70E9499010C94AE
:1000A0006D020C9400008EBD0DB407FEFDCF8EB521
:1000B00090E00895E1ECF0E0808188618083E2ECDB
:1000C000F0E08081866080831092C5008CE0809390
:1000D000C40008958091C00087FFFCCF8091C600C6
:1000E00008959091C00095FFFCCF8093C6000895BD
:1000F000CF93DF93EC018991811103C0DF91CF9100
:1001000008950E947100F7CF0F931F93CF93DF9351
:10011000EC018C010A5F1F4F0E946A008993C0178F
:10012000D107D1F7DF91CF911F910F91089580ED05
:1001300093E09093890080938800E1E8F0E080816B
:1001400088608083808185608083EFE6F0E0808135
:100150008260808308950F931F93CF93DF93CDB771
:10016000DEB72C970FB6F894DEBF0FBECDBF8C0163
:1001700080E38F83888780E090E00E948601CB0136
:100180000E94FF010E94FA01092E000CAA0BBB0B72
:10019000BC87AB879A8789870E946A00CE01079641
:1001A0000E947800CE0101960E9484009B8189857F
:1001B0009813F8CF9C818A859813F4CF9D818B8505
:1001C0009813F0CF9E818C859813ECCF8981F8012C
:1001D00080832C960FB6F894DEBF0FBECDBFDF91A3
:1001E000CF911F910F91089580937C0080917C00A6
:1001F000806480937C0080917C008F7D80937C0064
:1002000080917A00876080937A0080917A0080687C
:1002100080937A0080917A00806480937A00809144
:100220007A0086FDFCCF209178008091790090E0E3
:10023000982F8827820F911D08951F920F920FB655
:100240000F921124CF92DF92EF92FF922F933F9360
:100250004F935F936F937F938F939F93AF93BF93CE
:10026000EF93FF938BB190E489278BB981E00E94D3
:10027000F4006C01990FEE08FF0882E00E94F40080
:10028000C114D104E104F10421F181E380930B0155
:10029000F0920F01E0920E01D0920D01C0920C017C
:1002A00084E091E00E947800FF91EF91BF91AF91BF
:1002B0009F918F917F916F915F914F913F912F917E
:1002C000FF90EF90DF90CF900F900FBE0F901F9098
:1002D0001895092E000CAA0BBB0B0097A105B105C0
:1002E00061F022E320930B01B0930F01A0930E0164
:1002F00090930D0180930C01D3CF84E380930B0185
:100300001A9B02C081E3F6CF80E3F4CFFC010FB665
:10031000F8946091100170911101809112019091F7
:1003200013010FBE309721F0608371838283938322
:10033000089580E380930A0180930B0180930C0160
:1003400080930D0180930E0180930F010E945A004B
:100350000E949700569A22987894FFCF8F929F928E
:10036000AF92BF92CF92DF92EF92FF92CF93DF9343
:10037000EC01688179818A819B8161157105810514
:10038000910521F464E279ED8BE597E02DE133EFFF
:1003900041E050E00E940A0249015A019B01AC0170
:1003A000A7EAB1E40E9429026B017C01ACEEB4EF34
:1003B000A50194010E943702DC01CB018C0D9D1D2B
:1003C000AE1DBF1DB7FF03C00197A109B0488883C8
:1003D0009983AA83BB839F77DF91CF91FF90EF90A2
:1003E000DF90CF90BF90AF909F908F9008950E9424
:1003F000AE01089580E091E00E94AE010895A0E072
:10040000B0E08093000190930101A0930201B093AA
:1004100003010895052E97FB1EF400940E9421020B
:1004200057FD07D00E943C0207FC03D04EF40C9409
:10043000210250954095309521953F4F4F4F5F4F8A
:10044000089590958095709561957F4F8F4F9F4F40
:1004500008950E945E02A59F900DB49F900DA49FE9
:10046000800D911D11240895B7FF0C9429020E945C
:100470002902821B930B0895A1E21A2EAA1BBB1B13
:10048000FD010DC0AA1FBB1FEE1FFF1FA217B30760
:10049000E407F50720F0A21BB30BE40BF50B661F76
:1004A000771F881F991F1A9469F76095709580953A
:1004B00090959B01AC01BD01CF010895A29FB001B1
:1004C000B39FC001A39F700D811D1124911DB29F88
:0E04D000700D811D1124911D0895F894FFCF29
:0A04DE000100000064617461000079
:00000001FF
